{
    "_format": "hh-sol-artifact-1",
    "contractName": "NFTMinter",
    "sourceName": "contracts/NftMinter.sol",
    "abi": [
        {
            "inputs": [],
            "stateMutability": "nonpayable",
            "type": "constructor"
        },
        {
            "anonymous": false,
            "inputs": [
                {
                    "indexed": true,
                    "internalType": "address",
                    "name": "owner",
                    "type": "address"
                },
                {
                    "indexed": true,
                    "internalType": "address",
                    "name": "approved",
                    "type": "address"
                },
                {
                    "indexed": true,
                    "internalType": "uint256",
                    "name": "tokenId",
                    "type": "uint256"
                }
            ],
            "name": "Approval",
            "type": "event"
        },
        {
            "anonymous": false,
            "inputs": [
                {
                    "indexed": true,
                    "internalType": "address",
                    "name": "owner",
                    "type": "address"
                },
                {
                    "indexed": true,
                    "internalType": "address",
                    "name": "operator",
                    "type": "address"
                },
                {
                    "indexed": false,
                    "internalType": "bool",
                    "name": "approved",
                    "type": "bool"
                }
            ],
            "name": "ApprovalForAll",
            "type": "event"
        },
        {
            "anonymous": false,
            "inputs": [
                {
                    "indexed": true,
                    "internalType": "address",
                    "name": "from",
                    "type": "address"
                },
                {
                    "indexed": true,
                    "internalType": "address",
                    "name": "to",
                    "type": "address"
                },
                {
                    "indexed": true,
                    "internalType": "uint256",
                    "name": "tokenId",
                    "type": "uint256"
                }
            ],
            "name": "Transfer",
            "type": "event"
        },
        {
            "inputs": [
                {
                    "internalType": "address",
                    "name": "to",
                    "type": "address"
                },
                {
                    "internalType": "uint256",
                    "name": "tokenId",
                    "type": "uint256"
                }
            ],
            "name": "approve",
            "outputs": [],
            "stateMutability": "nonpayable",
            "type": "function"
        },
        {
            "inputs": [
                {
                    "internalType": "address",
                    "name": "owner",
                    "type": "address"
                }
            ],
            "name": "balanceOf",
            "outputs": [
                {
                    "internalType": "uint256",
                    "name": "",
                    "type": "uint256"
                }
            ],
            "stateMutability": "view",
            "type": "function"
        },
        {
            "inputs": [
                {
                    "internalType": "uint256",
                    "name": "tokenId",
                    "type": "uint256"
                }
            ],
            "name": "getApproved",
            "outputs": [
                {
                    "internalType": "address",
                    "name": "",
                    "type": "address"
                }
            ],
            "stateMutability": "view",
            "type": "function"
        },
        {
            "inputs": [
                {
                    "internalType": "address",
                    "name": "owner",
                    "type": "address"
                },
                {
                    "internalType": "address",
                    "name": "operator",
                    "type": "address"
                }
            ],
            "name": "isApprovedForAll",
            "outputs": [
                {
                    "internalType": "bool",
                    "name": "",
                    "type": "bool"
                }
            ],
            "stateMutability": "view",
            "type": "function"
        },
        {
            "inputs": [
                {
                    "internalType": "address",
                    "name": "recipient",
                    "type": "address"
                },
                {
                    "internalType": "string",
                    "name": "tokenURI",
                    "type": "string"
                }
            ],
            "name": "mintNFT",
            "outputs": [
                {
                    "internalType": "uint256",
                    "name": "",
                    "type": "uint256"
                }
            ],
            "stateMutability": "nonpayable",
            "type": "function"
        },
        {
            "inputs": [],
            "name": "name",
            "outputs": [
                {
                    "internalType": "string",
                    "name": "",
                    "type": "string"
                }
            ],
            "stateMutability": "view",
            "type": "function"
        },
        {
            "inputs": [
                {
                    "internalType": "uint256",
                    "name": "tokenId",
                    "type": "uint256"
                }
            ],
            "name": "ownerOf",
            "outputs": [
                {
                    "internalType": "address",
                    "name": "",
                    "type": "address"
                }
            ],
            "stateMutability": "view",
            "type": "function"
        },
        {
            "inputs": [
                {
                    "internalType": "address",
                    "name": "from",
                    "type": "address"
                },
                {
                    "internalType": "address",
                    "name": "to",
                    "type": "address"
                },
                {
                    "internalType": "uint256",
                    "name": "tokenId",
                    "type": "uint256"
                }
            ],
            "name": "safeTransferFrom",
            "outputs": [],
            "stateMutability": "nonpayable",
            "type": "function"
        },
        {
            "inputs": [
                {
                    "internalType": "address",
                    "name": "from",
                    "type": "address"
                },
                {
                    "internalType": "address",
                    "name": "to",
                    "type": "address"
                },
                {
                    "internalType": "uint256",
                    "name": "tokenId",
                    "type": "uint256"
                },
                {
                    "internalType": "bytes",
                    "name": "data",
                    "type": "bytes"
                }
            ],
            "name": "safeTransferFrom",
            "outputs": [],
            "stateMutability": "nonpayable",
            "type": "function"
        },
        {
            "inputs": [
                {
                    "internalType": "address",
                    "name": "operator",
                    "type": "address"
                },
                {
                    "internalType": "bool",
                    "name": "approved",
                    "type": "bool"
                }
            ],
            "name": "setApprovalForAll",
            "outputs": [],
            "stateMutability": "nonpayable",
            "type": "function"
        },
        {
            "inputs": [
                {
                    "internalType": "bytes4",
                    "name": "interfaceId",
                    "type": "bytes4"
                }
            ],
            "name": "supportsInterface",
            "outputs": [
                {
                    "internalType": "bool",
                    "name": "",
                    "type": "bool"
                }
            ],
            "stateMutability": "view",
            "type": "function"
        },
        {
            "inputs": [],
            "name": "symbol",
            "outputs": [
                {
                    "internalType": "string",
                    "name": "",
                    "type": "string"
                }
            ],
            "stateMutability": "view",
            "type": "function"
        },
        {
            "inputs": [
                {
                    "internalType": "uint256",
                    "name": "tokenId",
                    "type": "uint256"
                }
            ],
            "name": "tokenURI",
            "outputs": [
                {
                    "internalType": "string",
                    "name": "",
                    "type": "string"
                }
            ],
            "stateMutability": "view",
            "type": "function"
        },
        {
            "inputs": [
                {
                    "internalType": "address",
                    "name": "from",
                    "type": "address"
                },
                {
                    "internalType": "address",
                    "name": "to",
                    "type": "address"
                },
                {
                    "internalType": "uint256",
                    "name": "tokenId",
                    "type": "uint256"
                }
            ],
            "name": "transferFrom",
            "outputs": [],
            "stateMutability": "nonpayable",
            "type": "function"
        }
    ],
    "bytecode": "0x60806040523480156200001157600080fd5b506040518060400160405280600981526020017f4e46544d696e74657200000000000000000000000000000000000000000000008152506040518060400160405280600481526020017f4e46544d00000000000000000000000000000000000000000000000000000000815250816000908051906020019062000096929190620000b8565b508060019080519060200190620000af929190620000b8565b505050620001cd565b828054620000c69062000168565b90600052602060002090601f016020900481019282620000ea576000855562000136565b82601f106200010557805160ff191683800117855562000136565b8280016001018555821562000136579182015b828111156200013557825182559160200191906001019062000118565b5b50905062000145919062000149565b5090565b5b80821115620001645760008160009055506001016200014a565b5090565b600060028204905060018216806200018157607f821691505b602082108114156200019857620001976200019e565b5b50919050565b7f4e487b7100000000000000000000000000000000000000000000000000000000600052602260045260246000fd5b61294c80620001dd6000396000f3fe608060405234801561001057600080fd5b50600436106100ea5760003560e01c806370a082311161008c578063b88d4fde11610066578063b88d4fde1461025b578063c87b56dd14610277578063e985e9c5146102a7578063eacabe14146102d7576100ea565b806370a08231146101f157806395d89b4114610221578063a22cb4651461023f576100ea565b8063095ea7b3116100c8578063095ea7b31461016d57806323b872dd1461018957806342842e0e146101a55780636352211e146101c1576100ea565b806301ffc9a7146100ef57806306fdde031461011f578063081812fc1461013d575b600080fd5b61010960048036038101906101049190611dfa565b610307565b6040516101169190612174565b60405180910390f35b6101276103e9565b604051610134919061218f565b60405180910390f35b61015760048036038101906101529190611e4c565b61047b565b604051610164919061210d565b60405180910390f35b61018760048036038101906101829190611dbe565b6104c1565b005b6101a3600480360381019061019e9190611c64565b6105d9565b005b6101bf60048036038101906101ba9190611c64565b610639565b005b6101db60048036038101906101d69190611e4c565b610659565b6040516101e8919061210d565b60405180910390f35b61020b60048036038101906102069190611bff565b6106e0565b6040516102189190612331565b60405180910390f35b610229610798565b604051610236919061218f565b60405180910390f35b61025960048036038101906102549190611d2e565b61082a565b005b61027560048036038101906102709190611cb3565b610840565b005b610291600480360381019061028c9190611e4c565b6108a2565b60405161029e919061218f565b60405180910390f35b6102c160048036038101906102bc9190611c28565b6109b5565b6040516102ce9190612174565b60405180910390f35b6102f160048036038101906102ec9190611d6a565b610a49565b6040516102fe9190612331565b60405180910390f35b60007f80ac58cd000000000000000000000000000000000000000000000000000000007bffffffffffffffffffffffffffffffffffffffffffffffffffffffff1916827bffffffffffffffffffffffffffffffffffffffffffffffffffffffff191614806103d257507f5b5e139f000000000000000000000000000000000000000000000000000000007bffffffffffffffffffffffffffffffffffffffffffffffffffffffff1916827bffffffffffffffffffffffffffffffffffffffffffffffffffffffff1916145b806103e257506103e182610a81565b5b9050919050565b6060600080546103f8906124cc565b80601f0160208091040260200160405190810160405280929190818152602001828054610424906124cc565b80156104715780601f1061044657610100808354040283529160200191610471565b820191906000526020600020905b81548152906001019060200180831161045457829003601f168201915b5050505050905090565b600061048682610aeb565b6004600083815260200190815260200160002060009054906101000a900473ffffffffffffffffffffffffffffffffffffffff169050919050565b60006104cc82610659565b90508073ffffffffffffffffffffffffffffffffffffffff168373ffffffffffffffffffffffffffffffffffffffff16141561053d576040517f08c379a0000000000000000000000000000000000000000000000000000000008152600401610534906122f1565b60405180910390fd5b8073ffffffffffffffffffffffffffffffffffffffff1661055c610b36565b73ffffffffffffffffffffffffffffffffffffffff16148061058b575061058a81610585610b36565b6109b5565b5b6105ca576040517f08c379a00000000000000000000000000000000000000000000000000000000081526004016105c190612311565b60405180910390fd5b6105d48383610b3e565b505050565b6105ea6105e4610b36565b82610bf7565b610629576040517f08c379a0000000000000000000000000000000000000000000000000000000008152600401610620906121b1565b60405180910390fd5b610634838383610c8c565b505050565b61065483838360405180602001604052806000815250610840565b505050565b60008061066583610f86565b9050600073ffffffffffffffffffffffffffffffffffffffff168173ffffffffffffffffffffffffffffffffffffffff1614156106d7576040517f08c379a00000000000000000000000000000000000000000000000000000000081526004016106ce906122d1565b60405180910390fd5b80915050919050565b60008073ffffffffffffffffffffffffffffffffffffffff168273ffffffffffffffffffffffffffffffffffffffff161415610751576040517f08c379a000000000000000000000000000000000000000000000000000000000815260040161074890612271565b60405180910390fd5b600360008373ffffffffffffffffffffffffffffffffffffffff1673ffffffffffffffffffffffffffffffffffffffff168152602001908152602001600020549050919050565b6060600180546107a7906124cc565b80601f01602080910402602001604051908101604052809291908181526020018280546107d3906124cc565b80156108205780601f106107f557610100808354040283529160200191610820565b820191906000526020600020905b81548152906001019060200180831161080357829003601f168201915b5050505050905090565b61083c610835610b36565b8383610fc3565b5050565b61085161084b610b36565b83610bf7565b610890576040517f08c379a0000000000000000000000000000000000000000000000000000000008152600401610887906121b1565b60405180910390fd5b61089c84848484611130565b50505050565b60606108ad82610aeb565b60006006600084815260200190815260200160002080546108cd906124cc565b80601f01602080910402602001604051908101604052809291908181526020018280546108f9906124cc565b80156109465780601f1061091b57610100808354040283529160200191610946565b820191906000526020600020905b81548152906001019060200180831161092957829003601f168201915b50505050509050600061095761118c565b905060008151141561096d5781925050506109b0565b6000825111156109a257808260405160200161098a9291906120e9565b604051602081830303815290604052925050506109b0565b6109ab846111a3565b925050505b919050565b6000600560008473ffffffffffffffffffffffffffffffffffffffff1673ffffffffffffffffffffffffffffffffffffffff16815260200190815260200160002060008373ffffffffffffffffffffffffffffffffffffffff1673ffffffffffffffffffffffffffffffffffffffff16815260200190815260200160002060009054906101000a900460ff16905092915050565b6000610a55600761120b565b6000610a616007611221565b9050610a6d848261122f565b610a77818461144d565b8091505092915050565b60007f01ffc9a7000000000000000000000000000000000000000000000000000000007bffffffffffffffffffffffffffffffffffffffffffffffffffffffff1916827bffffffffffffffffffffffffffffffffffffffffffffffffffffffff1916149050919050565b610af4816114c1565b610b33576040517f08c379a0000000000000000000000000000000000000000000000000000000008152600401610b2a906122d1565b60405180910390fd5b50565b600033905090565b816004600083815260200190815260200160002060006101000a81548173ffffffffffffffffffffffffffffffffffffffff021916908373ffffffffffffffffffffffffffffffffffffffff160217905550808273ffffffffffffffffffffffffffffffffffffffff16610bb183610659565b73ffffffffffffffffffffffffffffffffffffffff167f8c5be1e5ebec7d5bd14f71427d1e84f3dd0314c0f7b2291e5b200ac8c7c3b92560405160405180910390a45050565b600080610c0383610659565b90508073ffffffffffffffffffffffffffffffffffffffff168473ffffffffffffffffffffffffffffffffffffffff161480610c455750610c4481856109b5565b5b80610c8357508373ffffffffffffffffffffffffffffffffffffffff16610c6b8461047b565b73ffffffffffffffffffffffffffffffffffffffff16145b91505092915050565b8273ffffffffffffffffffffffffffffffffffffffff16610cac82610659565b73ffffffffffffffffffffffffffffffffffffffff1614610d02576040517f08c379a0000000000000000000000000000000000000000000000000000000008152600401610cf9906121f1565b60405180910390fd5b600073ffffffffffffffffffffffffffffffffffffffff168273ffffffffffffffffffffffffffffffffffffffff161415610d72576040517f08c379a0000000000000000000000000000000000000000000000000000000008152600401610d6990612231565b60405180910390fd5b610d7f8383836001611502565b8273ffffffffffffffffffffffffffffffffffffffff16610d9f82610659565b73ffffffffffffffffffffffffffffffffffffffff1614610df5576040517f08c379a0000000000000000000000000000000000000000000000000000000008152600401610dec906121f1565b60405180910390fd5b6004600082815260200190815260200160002060006101000a81549073ffffffffffffffffffffffffffffffffffffffff02191690556001600360008573ffffffffffffffffffffffffffffffffffffffff1673ffffffffffffffffffffffffffffffffffffffff168152602001908152602001600020600082825403925050819055506001600360008473ffffffffffffffffffffffffffffffffffffffff1673ffffffffffffffffffffffffffffffffffffffff16815260200190815260200160002060008282540192505081905550816002600083815260200190815260200160002060006101000a81548173ffffffffffffffffffffffffffffffffffffffff021916908373ffffffffffffffffffffffffffffffffffffffff160217905550808273ffffffffffffffffffffffffffffffffffffffff168473ffffffffffffffffffffffffffffffffffffffff167fddf252ad1be2c89b69c2b068fc378daa952ba7f163c4a11628f55a4df523b3ef60405160405180910390a4610f818383836001611508565b505050565b60006002600083815260200190815260200160002060009054906101000a900473ffffffffffffffffffffffffffffffffffffffff169050919050565b8173ffffffffffffffffffffffffffffffffffffffff168373ffffffffffffffffffffffffffffffffffffffff161415611032576040517f08c379a000000000000000000000000000000000000000000000000000000000815260040161102990612251565b60405180910390fd5b80600560008573ffffffffffffffffffffffffffffffffffffffff1673ffffffffffffffffffffffffffffffffffffffff16815260200190815260200160002060008473ffffffffffffffffffffffffffffffffffffffff1673ffffffffffffffffffffffffffffffffffffffff16815260200190815260200160002060006101000a81548160ff0219169083151502179055508173ffffffffffffffffffffffffffffffffffffffff168373ffffffffffffffffffffffffffffffffffffffff167f17307eab39ab6107e8899845ad3d59bd9653f200f220920489ca2b5937696c31836040516111239190612174565b60405180910390a3505050565b61113b848484610c8c565b6111478484848461150e565b611186576040517f08c379a000000000000000000000000000000000000000000000000000000000815260040161117d906121d1565b60405180910390fd5b50505050565b606060405180602001604052806000815250905090565b60606111ae82610aeb565b60006111b861118c565b905060008151116111d85760405180602001604052806000815250611203565b806111e2846116a5565b6040516020016111f39291906120e9565b6040516020818303038152906040525b915050919050565b6001816000016000828254019250508190555050565b600081600001549050919050565b600073ffffffffffffffffffffffffffffffffffffffff168273ffffffffffffffffffffffffffffffffffffffff16141561129f576040517f08c379a0000000000000000000000000000000000000000000000000000000008152600401611296906122b1565b60405180910390fd5b6112a8816114c1565b156112e8576040517f08c379a00000000000000000000000000000000000000000000000000000000081526004016112df90612211565b60405180910390fd5b6112f6600083836001611502565b6112ff816114c1565b1561133f576040517f08c379a000000000000000000000000000000000000000000000000000000000815260040161133690612211565b60405180910390fd5b6001600360008473ffffffffffffffffffffffffffffffffffffffff1673ffffffffffffffffffffffffffffffffffffffff16815260200190815260200160002060008282540192505081905550816002600083815260200190815260200160002060006101000a81548173ffffffffffffffffffffffffffffffffffffffff021916908373ffffffffffffffffffffffffffffffffffffffff160217905550808273ffffffffffffffffffffffffffffffffffffffff16600073ffffffffffffffffffffffffffffffffffffffff167fddf252ad1be2c89b69c2b068fc378daa952ba7f163c4a11628f55a4df523b3ef60405160405180910390a4611449600083836001611508565b5050565b611456826114c1565b611495576040517f08c379a000000000000000000000000000000000000000000000000000000000815260040161148c90612291565b60405180910390fd5b806006600084815260200190815260200160002090805190602001906114bc929190611a23565b505050565b60008073ffffffffffffffffffffffffffffffffffffffff166114e383610f86565b73ffffffffffffffffffffffffffffffffffffffff1614159050919050565b50505050565b50505050565b600061152f8473ffffffffffffffffffffffffffffffffffffffff166117c9565b15611698578373ffffffffffffffffffffffffffffffffffffffff1663150b7a02611558610b36565b8786866040518563ffffffff1660e01b815260040161157a9493929190612128565b602060405180830381600087803b15801561159457600080fd5b505af19250505080156115c557506040513d601f19601f820116820180604052508101906115c29190611e23565b60015b611648573d80600081146115f5576040519150601f19603f3d011682016040523d82523d6000602084013e6115fa565b606091505b50600081511415611640576040517f08c379a0000000000000000000000000000000000000000000000000000000008152600401611637906121d1565b60405180910390fd5b805181602001fd5b63150b7a0260e01b7bffffffffffffffffffffffffffffffffffffffffffffffffffffffff1916817bffffffffffffffffffffffffffffffffffffffffffffffffffffffff19161491505061169d565b600190505b949350505050565b6060600060016116b4846117ec565b01905060008167ffffffffffffffff8111156116f9577f4e487b7100000000000000000000000000000000000000000000000000000000600052604160045260246000fd5b6040519080825280601f01601f19166020018201604052801561172b5781602001600182028036833780820191505090505b509050600082602001820190505b6001156117be578080600190039150507f3031323334353637383961626364656600000000000000000000000000000000600a86061a8153600a85816117a8577f4e487b7100000000000000000000000000000000000000000000000000000000600052601260045260246000fd5b04945060008514156117b9576117be565b611739565b819350505050919050565b6000808273ffffffffffffffffffffffffffffffffffffffff163b119050919050565b600080600090507a184f03e93ff9f4daa797ed6e38ed64bf6a1f0100000000000000008310611870577a184f03e93ff9f4daa797ed6e38ed64bf6a1f0100000000000000008381611866577f4e487b7100000000000000000000000000000000000000000000000000000000600052601260045260246000fd5b0492506040810190505b6d04ee2d6d415b85acef810000000083106118d3576d04ee2d6d415b85acef810000000083816118c9577f4e487b7100000000000000000000000000000000000000000000000000000000600052601260045260246000fd5b0492506020810190505b662386f26fc10000831061192857662386f26fc10000838161191e577f4e487b7100000000000000000000000000000000000000000000000000000000600052601260045260246000fd5b0492506010810190505b6305f5e1008310611977576305f5e100838161196d577f4e487b7100000000000000000000000000000000000000000000000000000000600052601260045260246000fd5b0492506008810190505b61271083106119c25761271083816119b8577f4e487b7100000000000000000000000000000000000000000000000000000000600052601260045260246000fd5b0492506004810190505b60648310611a0b5760648381611a01577f4e487b7100000000000000000000000000000000000000000000000000000000600052601260045260246000fd5b0492506002810190505b600a8310611a1a576001810190505b80915050919050565b828054611a2f906124cc565b90600052602060002090601f016020900481019282611a515760008555611a98565b82601f10611a6a57805160ff1916838001178555611a98565b82800160010185558215611a98579182015b82811115611a97578251825591602001919060010190611a7c565b5b509050611aa59190611aa9565b5090565b5b80821115611ac2576000816000905550600101611aaa565b5090565b6000611ad9611ad484612371565b61234c565b905082815260208101848484011115611af157600080fd5b611afc84828561248a565b509392505050565b6000611b17611b12846123a2565b61234c565b905082815260208101848484011115611b2f57600080fd5b611b3a84828561248a565b509392505050565b600081359050611b51816128ba565b92915050565b600081359050611b66816128d1565b92915050565b600081359050611b7b816128e8565b92915050565b600081519050611b90816128e8565b92915050565b600082601f830112611ba757600080fd5b8135611bb7848260208601611ac6565b91505092915050565b600082601f830112611bd157600080fd5b8135611be1848260208601611b04565b91505092915050565b600081359050611bf9816128ff565b92915050565b600060208284031215611c1157600080fd5b6000611c1f84828501611b42565b91505092915050565b60008060408385031215611c3b57600080fd5b6000611c4985828601611b42565b9250506020611c5a85828601611b42565b9150509250929050565b600080600060608486031215611c7957600080fd5b6000611c8786828701611b42565b9350506020611c9886828701611b42565b9250506040611ca986828701611bea565b9150509250925092565b60008060008060808587031215611cc957600080fd5b6000611cd787828801611b42565b9450506020611ce887828801611b42565b9350506040611cf987828801611bea565b925050606085013567ffffffffffffffff811115611d1657600080fd5b611d2287828801611b96565b91505092959194509250565b60008060408385031215611d4157600080fd5b6000611d4f85828601611b42565b9250506020611d6085828601611b57565b9150509250929050565b60008060408385031215611d7d57600080fd5b6000611d8b85828601611b42565b925050602083013567ffffffffffffffff811115611da857600080fd5b611db485828601611bc0565b9150509250929050565b60008060408385031215611dd157600080fd5b6000611ddf85828601611b42565b9250506020611df085828601611bea565b9150509250929050565b600060208284031215611e0c57600080fd5b6000611e1a84828501611b6c565b91505092915050565b600060208284031215611e3557600080fd5b6000611e4384828501611b81565b91505092915050565b600060208284031215611e5e57600080fd5b6000611e6c84828501611bea565b91505092915050565b611e7e81612416565b82525050565b611e8d81612428565b82525050565b6000611e9e826123d3565b611ea881856123e9565b9350611eb8818560208601612499565b611ec18161258d565b840191505092915050565b6000611ed7826123de565b611ee181856123fa565b9350611ef1818560208601612499565b611efa8161258d565b840191505092915050565b6000611f10826123de565b611f1a818561240b565b9350611f2a818560208601612499565b80840191505092915050565b6000611f43602d836123fa565b9150611f4e8261259e565b604082019050919050565b6000611f666032836123fa565b9150611f71826125ed565b604082019050919050565b6000611f896025836123fa565b9150611f948261263c565b604082019050919050565b6000611fac601c836123fa565b9150611fb78261268b565b602082019050919050565b6000611fcf6024836123fa565b9150611fda826126b4565b604082019050919050565b6000611ff26019836123fa565b9150611ffd82612703565b602082019050919050565b60006120156029836123fa565b91506120208261272c565b604082019050919050565b6000612038602e836123fa565b91506120438261277b565b604082019050919050565b600061205b6020836123fa565b9150612066826127ca565b602082019050919050565b600061207e6018836123fa565b9150612089826127f3565b602082019050919050565b60006120a16021836123fa565b91506120ac8261281c565b604082019050919050565b60006120c4603d836123fa565b91506120cf8261286b565b604082019050919050565b6120e381612480565b82525050565b60006120f58285611f05565b91506121018284611f05565b91508190509392505050565b60006020820190506121226000830184611e75565b92915050565b600060808201905061213d6000830187611e75565b61214a6020830186611e75565b61215760408301856120da565b81810360608301526121698184611e93565b905095945050505050565b60006020820190506121896000830184611e84565b92915050565b600060208201905081810360008301526121a98184611ecc565b905092915050565b600060208201905081810360008301526121ca81611f36565b9050919050565b600060208201905081810360008301526121ea81611f59565b9050919050565b6000602082019050818103600083015261220a81611f7c565b9050919050565b6000602082019050818103600083015261222a81611f9f565b9050919050565b6000602082019050818103600083015261224a81611fc2565b9050919050565b6000602082019050818103600083015261226a81611fe5565b9050919050565b6000602082019050818103600083015261228a81612008565b9050919050565b600060208201905081810360008301526122aa8161202b565b9050919050565b600060208201905081810360008301526122ca8161204e565b9050919050565b600060208201905081810360008301526122ea81612071565b9050919050565b6000602082019050818103600083015261230a81612094565b9050919050565b6000602082019050818103600083015261232a816120b7565b9050919050565b600060208201905061234660008301846120da565b92915050565b6000612356612367565b905061236282826124fe565b919050565b6000604051905090565b600067ffffffffffffffff82111561238c5761238b61255e565b5b6123958261258d565b9050602081019050919050565b600067ffffffffffffffff8211156123bd576123bc61255e565b5b6123c68261258d565b9050602081019050919050565b600081519050919050565b600081519050919050565b600082825260208201905092915050565b600082825260208201905092915050565b600081905092915050565b600061242182612460565b9050919050565b60008115159050919050565b60007fffffffff0000000000000000000000000000000000000000000000000000000082169050919050565b600073ffffffffffffffffffffffffffffffffffffffff82169050919050565b6000819050919050565b82818337600083830152505050565b60005b838110156124b757808201518184015260208101905061249c565b838111156124c6576000848401525b50505050565b600060028204905060018216806124e457607f821691505b602082108114156124f8576124f761252f565b5b50919050565b6125078261258d565b810181811067ffffffffffffffff821117156125265761252561255e565b5b80604052505050565b7f4e487b7100000000000000000000000000000000000000000000000000000000600052602260045260246000fd5b7f4e487b7100000000000000000000000000000000000000000000000000000000600052604160045260246000fd5b6000601f19601f8301169050919050565b7f4552433732313a2063616c6c6572206973206e6f7420746f6b656e206f776e6560008201527f72206f7220617070726f76656400000000000000000000000000000000000000602082015250565b7f4552433732313a207472616e7366657220746f206e6f6e20455243373231526560008201527f63656976657220696d706c656d656e7465720000000000000000000000000000602082015250565b7f4552433732313a207472616e736665722066726f6d20696e636f72726563742060008201527f6f776e6572000000000000000000000000000000000000000000000000000000602082015250565b7f4552433732313a20746f6b656e20616c7265616479206d696e74656400000000600082015250565b7f4552433732313a207472616e7366657220746f20746865207a65726f2061646460008201527f7265737300000000000000000000000000000000000000000000000000000000602082015250565b7f4552433732313a20617070726f766520746f2063616c6c657200000000000000600082015250565b7f4552433732313a2061646472657373207a65726f206973206e6f74206120766160008201527f6c6964206f776e65720000000000000000000000000000000000000000000000602082015250565b7f45524337323155524953746f726167653a2055524920736574206f66206e6f6e60008201527f6578697374656e7420746f6b656e000000000000000000000000000000000000602082015250565b7f4552433732313a206d696e7420746f20746865207a65726f2061646472657373600082015250565b7f4552433732313a20696e76616c696420746f6b656e2049440000000000000000600082015250565b7f4552433732313a20617070726f76616c20746f2063757272656e74206f776e6560008201527f7200000000000000000000000000000000000000000000000000000000000000602082015250565b7f4552433732313a20617070726f76652063616c6c6572206973206e6f7420746f60008201527f6b656e206f776e6572206f7220617070726f76656420666f7220616c6c000000602082015250565b6128c381612416565b81146128ce57600080fd5b50565b6128da81612428565b81146128e557600080fd5b50565b6128f181612434565b81146128fc57600080fd5b50565b61290881612480565b811461291357600080fd5b5056fea2646970667358221220082f54c09ee687c797ca2adda487d63d5a18c693196b276198572ba214b7c3d064736f6c63430008030033",
    "linkReferences": {},
    "deployedLinkReferences": {}
}